:100000000C942A000C943F000C943F000C943F0089
:100010000C943F000C943F000C943F000C943F0064
:100020000C943F000C943F000C943F000C943F0054
:100030000C943F000C943F000C943F000C943F0044
:100040000C943F000C943F000C943F000C943F0034
:100050000C943F0011241FBECFE5D8E0DEBFCDBF1A
:1000600010E0A0E6B0E0EEEBF7E202C005900D92E2
:10007000AC3CB107D9F70E944B100C94DD130C94E3
:100080000000EF92FF920F931F937B018C0120E001
:1000900030E040E05FE40E94410388238CF0C80117
:1000A000B70120E030E040E05FE40E94B9010E9427
:1000B000A1039B01AC01205030404040504806C095
:1000C000C801B7010E94A1039B01AC01B901CA019B
:1000D0001F910F91FF90EF900895A0E0B0E0E3E74B
:1000E000F0E00C94A613DC012B01FA019C919230F4
:1000F00008F439C1EB018881823008F433C19430AF
:1001000069F4843009F02FC111969C91119789816F
:10011000981709F428C1A3EBB0E025C1843009F495
:1001200021C18230A9F4923009F01DC19A01AD01BC
:1001300088E0EA010990AE01E90109929E0181502F
:10014000C1F7E201898111969C918923818308C1BD
:10015000923009F407C112962D903C901397EB0151
:100160008A819B811496AD90BD90CD90DC901797BD
:10017000EC80FD800E811F819101281B390BB90194
:1001800037FF04C066277727621B730B6032710547
:100190000CF061C0121613066CF537014801062EEB
:1001A00004C096948794779467940A94D2F721E0D8
:1001B00030E040E050E004C0220F331F441F551FC1
:1001C0006A95D2F721503040404050402E213F21C7
:1001D00040235123211531054105510521F021E02E
:1001E00030E040E050E079018A01E628F72808294C
:1001F00019293CC0232BD1F1260E371E35014601AB
:10020000062E04C096948794779467940A94D2F744
:1002100021E030E040E050E004C0220F331F441FD3
:10022000551F6A95D2F721503040404050402A2156
:100230003B214C215D21211531054105510521F05E
:1002400021E030E040E050E059016A01A628B728DB
:10025000C828D9280BC0821593052CF01C01AA24AC
:10026000BB24650103C0EE24FF24870111969C91F5
:10027000D20111968C91981709F445C0992339F051
:10028000A80197012A193B094C095D0906C0A6017E
:1002900095012E193F09400B510B57FD08C01182E3
:1002A0003382228224833583468357831DC081E0B5
:1002B00081833382228288279927DC01821B930B5A
:1002C000A40BB50B84839583A683B7830DC0220F3F
:1002D000331F441F551F24833583468357838281F0
:1002E000938101979383828324813581468157814D
:1002F000DA01C9010197A109B1098F5F9F4FAF4F83
:10030000BF4328F30BC0918333822282EA0CFB1C8B
:100310000C1D1D1DE482F5820683178383E0808314
:10032000248135814681578157FF1AC0C901AA2708
:1003300097FDA095BA2F81709070A070B0705695FF
:10034000479537952795822B932BA42BB52B848328
:100350009583A683B7838281938101969383828359
:10036000DF0101C0D201CD01CDB7DEB7E2E10C94CF
:10037000C213A0E2B0E0EFEBF1E00C94B21369839A
:100380007A838B839C832D833E834F835887E9E058
:10039000EE2EF12CEC0EFD1ECE010196B7010E944F
:1003A000CA048E010F5E1F4FCE010596B8010E9450
:1003B000CA048A8991E089278A8BC701B801AE01F6
:1003C000475E5F4F0E946D000E94F503A096E6E035
:1003D0000C94CE13A0E2B0E0E0EFF1E00C94B21385
:1003E00069837A838B839C832D833E834F835887D5
:1003F000F9E0EF2EF12CEC0EFD1ECE010196B701B7
:100400000E94CA048E010F5E1F4FCE010596B801EF
:100410000E94CA04C701B801AE01475E5F4F0E9447
:100420006D000E94F503A096E6E00C94CE13A0E2C6
:10043000B0E0EDE1F2E00C94A61369837A838B833C
:100440009C832D833E834F835887CE010196BE0146
:10045000675F7F4F0E94CA04CE010596BE016F5EA2
:100460007F4F0E94CA049985923088F08989823032
:10047000C8F0943019F4823051F404C0843029F467
:10048000923081F483EB90E0C6C0923049F420E0D2
:100490009A858A89981321E02A87CE010996BBC0E4
:1004A000823049F420E09A858A89981321E02A8BCA
:1004B000CE014196B0C02D843E844F8458886D880B
:1004C0007E888F88988CEE24FF248701AA24BB2481
:1004D000650140E050E060E070E0E0E0F0E0C10184
:1004E00081709070892BE9F0E60CF71C081D191D2E
:1004F0009A01AB012A0D3B1D4C1D5D1D80E090E073
:10050000A0E0B0E0E614F7040805190520F481E046
:1005100090E0A0E0B0E0BA01A901480F591F6A1F9E
:100520007B1FAA0CBB1CCC1CDD1C97FE08C081E005
:1005300090E0A0E0B0E0A82AB92ACA2ADB2A3196C6
:10054000E032F10549F0660C771C881C991C569422
:10055000479437942794C3CFFA85EA892B893C893D
:100560008B859C85280F391F2E5F3F4F17C0CA010E
:1005700081709070892B61F016950795F794E79438
:1005800080E090E0A0E0B0E8E82AF92A0A2B1B2BD3
:1005900076956795579547952F5F3F4F77FDE7CF46
:1005A0000CC0440F551F661F771F17FD4160EE0CEE
:1005B000FF1C001F111F21503040403090E05907B0
:1005C00090E0690790E4790760F32B8F3C8FDB01A3
:1005D000CA018F779070A070B07080349105A1052A
:1005E000B10561F447FD0AC0E114F10401051105EC
:1005F00029F0405C5F4F6F4F7F4F40781A8EFE1797
:1006000011F081E08A8F4D8F5E8F6F8F78A383E02A
:10061000898FCE0149960E94F503A096E2E10C94E1
:10062000C213A8E1B0E0E7E1F3E00C94B2136983F0
:100630007A838B839C832D833E834F83588789E005
:10064000E82EF12CEC0EFD1ECE010196B7010E94A2
:10065000CA048E010F5E1F4FCE010596B8010E949D
:10066000CA048985823040F08989823028F0C70128
:10067000B8010E94420501C08FEF6896E6E00C9435
:10068000CE13A8E1B0E0E7E4F3E00C94B213698381
:100690007A838B839C832D833E834F83588789E0A5
:1006A000E82EF12CEC0EFD1ECE010196B7010E9442
:1006B000CA048E010F5E1F4FCE010596B8010E943D
:1006C000CA048985823040F08989823028F0C701C8
:1006D000B8010E94420501C08FEF6896E6E00C94D5
:1006E000CE13A8E1B0E0E7E7F3E00C94B21369831E
:1006F0007A838B839C832D833E834F83588789E045
:10070000E82EF12CEC0EFD1ECE010196B7010E94E1
:10071000CA048E010F5E1F4FCE010596B8010E94DC
:10072000CA048985823040F08989823028F0C70167
:10073000B8010E94420501C081E06896E6E00C9491
:10074000CE13ACE0B0E0E7EAF3E00C94B6136983B3
:100750007A838B839C83CE010196BE016B5F7F4FB2
:100760000E94CA048D81823061F1823050F1843060
:1007700021F48E81882351F12EC02F81388537FDD9
:1007800020C06E812F3131051CF06623F9F023C0A3
:100790008EE190E0821B930B29853A854B855C8521
:1007A00004C056954795379527958A95D2F76623C5
:1007B000B1F050954095309521953F4F4F4F5F4F89
:1007C0000EC020E030E040E050E009C02FEF3FEFE6
:1007D0004FEF5FE704C020E030E040E050E8B901AF
:1007E000CA012C96E2E00C94D213DF92EF92FF92B2
:1007F0000F931F93FC01E480F58006811781D1805F
:100800008081823048F480E090E0A0E1B0E0E82A06
:10081000F92A0A2B1B2BA5C0843009F49FC0823013
:1008200021F4EE24FF24870105C0E114F104010541
:10083000110519F4E0E0F0E096C0628173819FEF4A
:10084000623879070CF05BC022E83FEF261B370BBC
:100850002A3131052CF020E030E040E050E02AC0A1
:10086000B801A701022E04C0769567955795479564
:100870000A94D2F781E090E0A0E0B0E004C0880FD5
:10088000991FAA1FBB1F2A95D2F70197A109B10989
:100890008E219F21A023B1230097A105B10521F04E
:1008A00081E090E0A0E0B0E09A01AB01282B392B69
:1008B0004A2B5B2BDA01C9018F779070A070B07062
:1008C00080349105A105B10539F427FF09C0205CEA
:1008D0003F4F4F4F5F4F04C0215C3F4F4F4F5F4F23
:1008E000E0E0F0E02030A0E03A07A0E04A07A0E412
:1008F0005A0710F0E1E0F0E079018A0127C0603882
:10090000710564F5FB01E158FF4FD801C7018F77EE
:100910009070A070B07080349105A105B10539F4D4
:10092000E7FE0DC080E490E0A0E0B0E004C08FE3FB
:1009300090E0A0E0B0E0E80EF91E0A1F1B1F17FFB1
:1009400005C016950795F794E794319687E01695BC
:100950000795F794E7948A95D1F705C0EE24FF2414
:100960008701EFEFF0E06E2F679566276795902F70
:100970009F77D794DD24D7948E2F8695492F462BC9
:10098000582F5D29B701CA011F910F91FF90EF9079
:10099000DF900895FC01DB01408151812281622FAB
:1009A0006F7770E0221F2227221F9381892F880FE3
:1009B000822B282F30E0991F9927991F11969C931D
:1009C000119721153105A9F54115510561057105ED
:1009D00011F482E037C082E89FEF13969C938E93C8
:1009E00012979A01AB0167E0220F331F441F551F76
:1009F0006A95D1F783E08C930DC0220F331F441FFB
:100A0000551F12968D919C911397019713969C9365
:100A10008E931297203080E0380780E0480780E40A
:100A2000580758F314962D933D934D935C93179765
:100A300008952F3F310579F4411551056105710580
:100A400019F484E08C93089564FF03C081E08C93D3
:100A500012C01C9210C02F57304013963C932E9317
:100A6000129783E08C9387E0440F551F661F771F12
:100A70008A95D1F7706414964D935D936D937C9332
:100A8000179708951F93DC01FB019C91923008F4A5
:100A900047C08081823008F443C0943051F41196ED
:100AA0001C91843099F58181682F70E0611B710978
:100AB0003FC0843021F0923031F48230B9F181812D
:100AC000882389F12DC011961C9111978230F1F085
:100AD00081811817D9F412962D913C911397828138
:100AE00093818217930794F028173907BCF0149666
:100AF0008D919D910D90BC91A02D248135814681D1
:100B00005781281739074A075B0718F4112341F06A
:100B10000AC082179307A407B50740F4112319F000
:100B200061E070E005C06FEF7FEF02C060E070E051
:100B3000CB011F910895DF93CF930F92CDB7DEB70E
:100B400081E0898389810F90CF91DF910895DF93B0
:100B5000CF9300D000D0CDB7DEB79B838A836C8360
:100B600081E08983ECE3F0E08081882F90E0817060
:100B700090708823B9F7EEE3F0E08A819B8191833E
:100B80008083EDE3F0E08C818083ACE3B0E0ECE3C4
:100B9000F0E0808184608C93ACE3B0E0ECE3F0E0C3
:100BA000808182608C93198289810F900F900F90C1
:100BB0000F90CF91DF910895DF93CF9300D000D0B5
:100BC0000F92CDB7DEB79B838A837D836C8381E0F0
:100BD0008983EEE3F0E08A819B8191838083ACE39B
:100BE000B0E0ECE3F0E0808181608C93EDE3F0E035
:100BF0008081EC81FD818083198289810F900F9023
:100C00000F900F900F90CF91DF910895DF93CF93C6
:100C10000F92CDB7DEB781E0898389810F90CF91A4
:100C2000DF910895DF93CF9300D000D000D0CDB7EF
:100C3000DEB78A836B834C8381E089838A81843029
:100C400008F0D0C08B81883008F0CCC08C81823015
:100C500008F0C8C08A81282F30E03E832D836D8143
:100C60007E816130710509F441C08D819E818230A1
:100C7000910534F42D813E812115310571F0B0C00C
:100C80006D817E816230710509F459C08D819E812C
:100C90008330910509F47CC0A3C0AAE3B0E0EAE385
:100CA000F0E08081482F8B81282F30E081E090E0B8
:100CB00002C0880F991F2A95E2F7809584238C93B0
:100CC000AAE3B0E0EAE3F0E08081482F8C81282F8E
:100CD00030E08B81882F90E0B90102C0660F771F4A
:100CE0008A95E2F7CB01842B8C937AC0A7E3B0E01E
:100CF000E7E3F0E08081482F8B81282F30E081E00E
:100D000090E002C0880F991F2A95E2F7809584230E
:100D10008C93A7E3B0E0E7E3F0E08081482F8C817B
:100D2000282F30E08B81882F90E0B90102C0660F38
:100D3000771F8A95E2F7CB01842B8C9351C0A4E3F3
:100D4000B0E0E4E3F0E08081482F8B81282F30E091
:100D500081E090E002C0880F991F2A95E2F7809504
:100D600084238C93A4E3B0E0E4E3F0E08081482F97
:100D70008C81282F30E08B81882F90E0B90102C050
:100D8000660F771F8A95E2F7CB01842B8C9328C0DE
:100D9000A1E3B0E0E1E3F0E08081482F8B81282FD0
:100DA00030E081E090E002C0880F991F2A95E2F7B9
:100DB000809584238C93A1E3B0E0E1E3F0E08081AF
:100DC000482F8C81282F30E08B81882F90E0B9014B
:100DD00002C0660F771F8A95E2F7CB01842B8C93B4
:100DE000198202C082E08983898126960FB6F89421
:100DF000DEBF0FBECDBFCF91DF910895DF93CF93BC
:100E000000D000D000D0CDB7DEB78A836B834C838F
:100E100081E089838A81843008F0D3C08B81883057
:100E200008F0CFC08C81823020F08C81823008F0B5
:100E3000C8C08A81282F30E03E832D836D817E815A
:100E40006130710509F441C08D819E818230910528
:100E500034F42D813E812115310571F0B0C06D81D2
:100E60007E816230710509F459C08D819E81833085
:100E7000910509F47CC0A3C0ABE3B0E0EBE3F0E084
:100E80008081482F8B81282F30E081E090E002C0E4
:100E9000880F991F2A95E2F7809584238C93ABE302
:100EA000B0E0EBE3F0E08081482F8C81282F30E028
:100EB0008B81882F90E0B90102C0660F771F8A9559
:100EC000E2F7CB01842B8C937AC0A8E3B0E0E8E38F
:100ED000F0E08081482F8B81282F30E081E090E086
:100EE00002C0880F991F2A95E2F7809584238C937E
:100EF000A8E3B0E0E8E3F0E08081482F8C81282F60
:100F000030E08B81882F90E0B90102C0660F771F17
:100F10008A95E2F7CB01842B8C9351C0A5E3B0E016
:100F2000E5E3F0E08081482F8B81282F30E081E0DD
:100F300090E002C0880F991F2A95E2F780958423DC
:100F40008C93A5E3B0E0E5E3F0E08081482F8C814D
:100F5000282F30E08B81882F90E0B90102C0660F06
:100F6000771F8A95E2F7CB01842B8C9328C0A2E3EC
:100F7000B0E0E2E3F0E08081482F8B81282F30E061
:100F800081E090E002C0880F991F2A95E2F78095D2
:100F900084238C93A2E3B0E0E2E3F0E08081482F69
:100FA0008C81282F30E08B81882F90E0B90102C01E
:100FB000660F771F8A95E2F7CB01842B8C931982F9
:100FC00002C082E08983898126960FB6F894DEBF3D
:100FD0000FBECDBFCF91DF910895DF93CF9300D0A7
:100FE00000D00F92CDB7DEB78A836B8381E089830F
:100FF0008A81843008F073C08B81883008F06FC01C
:101000008A81282F30E03D832C838C819D81813023
:10101000910549F12C813D81223031052CF48C81E0
:101020009D81009761F05DC02C813D8122303105AA
:1010300071F18C819D8183309105E9F152C0ABE360
:10104000B0E0EBE3F0E08081482F8B81282F30E087
:1010500081E090E0022E02C0880F991F0A94E2F707
:1010600084278C933EC0A8E3B0E0E8E3F0E0808101
:10107000482F8B81282F30E081E090E0022E02C0C3
:10108000880F991F0A94E2F784278C932AC0A5E35E
:10109000B0E0E5E3F0E08081482F8B81282F30E03D
:1010A00081E090E0022E02C0880F991F0A94E2F7B7
:1010B00084278C9316C0A2E3B0E0E2E3F0E08081E5
:1010C000482F8B81282F30E081E090E0022E02C073
:1010D000880F991F0A94E2F784278C9302C082E05C
:1010E000898389810F900F900F900F900F90CF916F
:1010F000DF910895DF93CF93CDB7DEB727970FB673
:10110000F894DEBF0FBECDBF8A836B835D834C83B3
:1011100081E089838C819D81009709F47CC08A815C
:10112000843008F075C08B81883008F071C08A81E6
:10113000282F30E03F832E834E815F81413051055F
:1011400059F18E819F818230910534F42E813F8147
:101150002115310569F061C04E815F814230510532
:1011600079F18E819F818330910509F43DC055C08E
:10117000E9E3F0E08081282F30E08B81882F90E038
:10118000A90102C0559547958A95E2F7CA01817079
:10119000EC81FD81808341C0E6E3F0E08081282F6F
:1011A00030E08B81882F90E0A90102C055954795CA
:1011B0008A95E2F7CA018170EC81FD8180832DC0A0
:1011C000E3E3F0E08081282F30E08B81882F90E0EE
:1011D000A90102C0559547958A95E2F7CA01817029
:1011E000EC81FD81808319C0E0E3F0E08081282F4D
:1011F00030E08B81882F90E0A90102C0559547957A
:101200008A95E2F7CA018170EC81FD81808305C077
:1012100082E0898302C083E08983898127960FB6A3
:10122000F894DEBF0FBECDBFCF91DF910895DF935D
:10123000CF93CDB7DEB7AB970FB6F894DEBF0FBE36
:10124000CDBF81E08BA780E090E0ACE0B2E48FA35B
:1012500098A7A9A7BAA76FA178A589A59AA520E004
:1012600030E04AE755E40E941702DC01CB018BA372
:101270009CA3ADA3BEA36BA17CA18DA19EA120E0E8
:1012800030E040E85FE30E94710388232CF481E0A2
:1012900090E09AA389A33FC06BA17CA18DA19EA1E0
:1012A00020E03FEF4FE757E40E94110318164CF57A
:1012B0006FA178A589A59AA520E030E040E251E42D
:1012C0000E941702DC01CB01BC01CD010E9441004C
:1012D000DC01CB019AA389A30FC080E991E098A318
:1012E0008F8F8F8D98A10197F1F798A38F8F89A188
:1012F0009AA101979AA389A389A19AA1009769F756
:1013000014C06BA17CA18DA19EA10E944100DC01B3
:10131000CB019AA389A389A19AA19E8F8D8F8D8DD0
:101320009E8D0197F1F79E8F8D8F80E061E041E007
:101330000E94120683E067E041E00E94120680E00E
:1013400062E041E00E94120680E066E041E00E9417
:10135000120680E065E041E00E94120680E064E051
:1013600041E00E94120680E063E041E00E94120624
:1013700080E061E040E00E94FE0680E066E040E040
:101380000E94FE0680E065E040E00E94FE0680E0EC
:1013900064E041E00E94FE0680E063E040E00E94DD
:1013A000FE0680E062E041E00E94FE0680E090E000
:1013B000A0E2B1E4898F9A8FAB8FBC8F698D7A8D53
:1013C0008B8D9C8D20E030E04AE755E40E941702A7
:1013D000DC01CB018D8B9E8BAF8BB88F6D897E89A5
:1013E0008F89988D20E030E040E85FE30E94710330
:1013F00088232CF481E090E09C8B8B8B3FC06D891F
:101400007E898F89988D20E03FEF4FE757E40E9457
:10141000110318164CF5698D7A8D8B8D9C8D20E00B
:1014200030E040E251E40E941702DC01CB01BC0134
:10143000CD010E944100DC01CB019C8B8B8B0FC046
:1014400080E991E09A8B898B89899A890197F1F7D4
:101450009A8B898B8B899C8901979C8B8B8B8B8931
:101460009C89009769F714C06D897E898F89988D52
:101470000E944100DC01CB019C8B8B8B8B899C896A
:10148000988B8F878F8598890197F1F7988B8F8735
:1014900080E062E040E00E94FE0680E090E0A0E292
:1014A000B1E48B879C87AD87BE876B857C858D85F6
:1014B0009E8520E030E04AE755E40E941702DC01F7
:1014C000CB018F839887A987BA876F8178858985B3
:1014D0009A8520E030E040E85FE30E9471038823B2
:1014E0002CF481E090E09E838D833FC06F817885EE
:1014F00089859A8520E03FEF4FE757E40E9411036A
:1015000018164CF56B857C858D859E8520E030E036
:1015100040E251E40E941702DC01CB01BC01CD0185
:101520000E944100DC01CB019E838D830FC080E9C6
:1015300091E09C838B838B819C810197F1F79C8345
:101540008B838D819E8101979E838D838D819E816A
:10155000009769F714C06F81788589859A850E9404
:101560004100DC01CB019E838D838D819E819A8316
:10157000898389819A810197F1F79A83898388E227
:101580000E941A0C80E061E040E00E94FE068FE0BD
:101590000E941A0C80E061E040E00E94FE0681E0BB
:1015A0000E941A0C80E061E040E00E94FE0686E0A6
:1015B0000E941A0C8BA5AB960FB6F894DEBF0FBE37
:1015C000CDBFCF91DF910895DF93CF9300D0CDB7FA
:1015D000DEB78A8381E0898380E061E041E00E9498
:1015E000FE068A810E941A0C89810F900F90CF917C
:1015F000DF910895DF93CF9300D0CDB7DEB78A8314
:1016000081E0898380E061E040E00E94FE068A81FB
:101610000E941A0C89810F900F90CF91DF9108954D
:10162000DF93CF9300D00F92CDB7DEB79B838A8331
:1016300081E089838A819B810097B9F010C080E0A6
:1016400061E041E00E94FE06EA81FB8120818A81FF
:101650009B8101969B838A83822F0E941A0CEA81C8
:10166000FB818081882359F702C083E089838981C7
:101670000F900F900F90CF91DF9108950F931F93CC
:10168000DF93CF93CDB7DEB762970FB6F894DEBF86
:101690000FBECDBF6F87788B898B9A8B81E08A8351
:1016A0008CE0FE013396DF01982F1D929A95E9F7A1
:1016B00019828F859889A989BA890097A105B105F2
:1016C00041F480E061E041E00E94FE0680E30E9478
:1016D0001A0C8F859889A989BA89BB230CF046C05A
:1016E00080E061E041E00E94FE068DE20E941A0C5B
:1016F0008F859889A989BA89B095A095909581958B
:101700009F4FAF4FBF4F8F87988BA98BBA8B2EC03F
:1017100089818F5F89838981082F10E08F8598895F
:10172000A989BA892AE030E040E050E0BC01CD014F
:101730000E946913DC01CB01282F205DCE010396A6
:10174000FC01E00FF11F20838F859889A989BA8950
:101750002AE030E040E050E0BC01CD010E94691376
:10176000DA01C9018F87988BA98BBA8B8F859889ED
:10177000A989BA890097A105B10551F614C080E086
:1017800061E041E00E94FE068981282F30E0CE0111
:101790000396FC01E20FF31F9081898181508983B8
:1017A000892F0E941A0C8981882349F78A816296C1
:1017B0000FB6F894DEBF0FBECDBFCF91DF911F9162
:1017C0000F910895DF93CF9300D00F92CDB7DEB77E
:1017D0008A836B8381E089838A81882311F18A81DE
:1017E0008330F8F48B818823E1F08B818131C8F458
:1017F00080E061E040E00E94FE068A81882F90E050
:101800000196002496958795079496958795079459
:10181000982F802D982F8B81890F81500E941A0C50
:1018200002C082E0898389810F900F900F90CF9141
:10183000DF910895DF93CF93CDB7DEB7EA970FB668
:10184000F894DEBF0FBECDBF8AAF81E089AF83E0E1
:1018500067E040E00E94FE0680E062E040E00E9417
:10186000FE068AAD982F991F9927991F80E066E0A0
:10187000492F0E94FE068AAD8295869586958370D3
:10188000982F917080E065E0492F0E94FE068AAD96
:10189000829586958770982F917080E064E0492F3B
:1018A0000E94FE068AAD82958F70982F917080E01D
:1018B00063E0492F0E94FE0680E062E041E00E9462
:1018C000FE0680E090E0A0E2B1E48DAB9EABAFAB52
:1018D000B8AF6DA97EA98FA998AD20E030E04AE7A6
:1018E00055E40E941702DC01CB0189AB9AABABAB8C
:1018F000BCAB69A97AA98BA99CA920E030E040E89B
:101900005FE30E94710388232CF481E090E098ABA0
:101910008FA73FC069A97AA98BA99CA920E03FEFB6
:101920004FE757E40E94110318164CF56DA97EA9E4
:101930008FA998AD20E030E040E251E40E94170208
:10194000DC01CB01BC01CD010E944100DC01CB01D7
:1019500098AB8FA70FC080E991E09EA78DA78DA5BA
:101960009EA50197F1F79EA78DA78FA598A901972E
:1019700098AB8FA78FA598A9009769F714C069A99C
:101980007AA98BA99CA90E944100DC01CB0198ABEC
:101990008FA78FA598A99CA78BA78BA59CA501971E
:1019A000F1F79CA78BA780E062E040E00E94FE0672
:1019B00080E090E0A0E2B1E48FA398A7A9A7BAA71E
:1019C0006FA178A589A59AA520E030E04AE755E403
:1019D0000E941702DC01CB018BA39CA3ADA3BEA385
:1019E0006BA17CA18DA19EA120E030E040E85FE3E7
:1019F0000E94710388232CF481E090E09AA389A3CC
:101A00003FC06BA17CA18DA19EA120E03FEF4FE7DD
:101A100057E40E94110318164CF56FA178A589A50B
:101A20009AA520E030E040E251E40E941702DC0178
:101A3000CB01BC01CD010E944100DC01CB019AA386
:101A400089A30FC080E991E098A38F8F8F8D98A113
:101A50000197F1F798A38F8F89A19AA101979AA373
:101A600089A389A19AA1009769F714C06BA17CA1F1
:101A70008DA19EA10E944100DC01CB019AA389A304
:101A800089A19AA19E8F8D8F8D8D9E8D0197F1F7E3
:101A90009E8F8D8F8AAD869586958695982F9170AD
:101AA00080E066E0492F0E94FE068AAD8695869505
:101AB000982F917080E065E0492F0E94FE068AAD64
:101AC0008695982F917080E064E0492F0E94FE0671
:101AD0008AAD982F917080E063E0492F0E94FE0646
:101AE00080E062E041E00E94FE0680E090E0A0E23B
:101AF000B1E4898F9A8FAB8FBC8F698D7A8D8B8D76
:101B00009C8D20E030E04AE755E40E941702DC019A
:101B1000CB018D8B9E8BAF8BB88F6D897E898F8922
:101B2000988D20E030E040E85FE30E947103882355
:101B30002CF481E090E09C8B8B8B3FC06D897E897B
:101B40008F89988D20E03FEF4FE757E40E94110303
:101B500018164CF5698D7A8D8B8D9C8D20E030E0C8
:101B600040E251E40E941702DC01CB01BC01CD012F
:101B70000E944100DC01CB019C8B8B8B0FC080E964
:101B800091E09A8B898B89899A890197F1F79A8BD1
:101B9000898B8B899C8901979C8B8B8B8B899C89EA
:101BA000009769F714C06D897E898F89988D0E948E
:101BB0004100DC01CB019C8B8B8B8B899C89988BA2
:101BC0008F878F8598890197F1F7988B8F8780E0B1
:101BD00062E040E00E94FE0680E090E0A0E2B1E416
:101BE0008B879C87AD87BE876B857C858D859E8521
:101BF00020E030E04AE755E40E941702DC01CB0107
:101C00008F839887A987BA876F81788589859A8518
:101C100020E030E040E85FE30E94710388232CF469
:101C200081E090E09E838D833FC06F8178858985B8
:101C30009A8520E03FEF4FE757E40E941103181602
:101C40004CF56B857C858D859E8520E030E040E2FB
:101C500051E40E941702DC01CB01BC01CD010E94BE
:101C60004100DC01CB019E838D830FC080E991E0B0
:101C70009C838B838B819C810197F1F79C838B8361
:101C80008D819E8101979E838D838D819E8100979A
:101C900069F714C06F81788589859A850E94410013
:101CA000DC01CB019E838D838D819E819A83898304
:101CB00089819A810197F1F79A83898389ADEA96A0
:101CC0000FB6F894DEBF0FBECDBFCF91DF91089560
:101CD000DF93CF930F92CDB7DEB781E0898383E0A6
:101CE00062E041E00E94120683E063E041E00E946E
:101CF000120683E064E041E00E94120683E065E0A2
:101D000041E00E94120683E062E041E00E94FE068C
:101D100083E063E041E00E94FE0683E064E041E08E
:101D20000E94FE0683E065E041E00E94FE0681E03D
:101D300064E040E00E94120681E065E040E00E941D
:101D4000120681E066E040E00E94120681E067E052
:101D500040E00E94120681E064E041E00E94FE063D
:101D600081E065E041E00E94FE0681E066E041E03E
:101D70000E94FE0681E067E041E00E94FE06898144
:101D80000F90CF91DF910895DF93CF93CDB7DEB75A
:101D9000EA970FB6F894DEBF0FBECDBF9DAB8CABFC
:101DA00081E08A8B198A188A81E08B8B81E08C8B89
:101DB00081E08D8B81E08E8B84E08F8B85E0888F36
:101DC00086E0898F87E08A8F83E08B8F83E08C8F1A
:101DD00083E08D8F83E08E8F82E08F8F83E088A3F6
:101DE00084E089A385E08AA380E68BA31F863EC199
:101DF0008889282F30E0CE014B96FC01E20FF31FBB
:101E000040818889282F30E0CE014F96FC01E20FF7
:101E1000F31F9081842F692F40E00E94FE06198AEB
:101E200007C18989282F30E0CE014396FC01E20FDB
:101E3000F31F40818989282F30E0CE014796FC01AD
:101E4000E20FF31F90819E012D5D3F4F842F692F7C
:101E5000A9010E947A088BA1882309F0E6C080E0DE
:101E600090E0A0E2B1E48B879C87AD87BE876B854D
:101E70007C858D859E8520E030E04AE755E40E9410
:101E80001702DC01CB018F839887A987BA876F81FE
:101E9000788589859A8520E030E040E85FE30E94FC
:101EA000710388232CF481E090E09E838D833FC0F2
:101EB0006F81788589859A8520E03FEF4FE757E469
:101EC0000E94110318164CF56B857C858D859E85C7
:101ED00020E030E040E251E40E941702DC01CB0137
:101EE000BC01CD010E944100DC01CB019E838D83AA
:101EF0000FC080E991E09C838B838B819C8101974B
:101F0000F1F79C838B838D819E8101979E838D83C6
:101F10008D819E81009769F714C06F8178858985CE
:101F20009A850E944100DC01CB019E838D838D81C7
:101F30009E819A83898389819A810197F1F79A8397
:101F400089838989282F30E0CE014396FC01E20F76
:101F5000F31F40818989282F30E0CE014796FC018C
:101F6000E20FF31F90819E012D5D3F4F842F692F5B
:101F7000A9010E947A088BA1882309F056C01AC0D3
:101F80008989282F30E0CE014396FC01E20FF31F30
:101F900040818989282F30E0CE014796FC01E20F6D
:101FA000F31F90819E012D5D3F4F842F692FA90162
:101FB0000E947A088BA1882319F3CE0184969FABE7
:101FC0008EABEBEBF0E0F9AFE8AFF0E1FAAFE8ADE4
:101FD000F9AD008088AD99AD019699AF88AFEEA9B3
:101FE000FFA900828EA99FA901969FAB8EAB9AADE7
:101FF00091509AAFEAADEE2351F78989282F30E04E
:102000008889482F50E0220F331F220F331FCE0143
:102010000196820F931F840F951FFC01B396808158
:10202000ECA9FDA9808381E08F8789898F5F898BE7
:102030008989843008F4F5CE8889282F30E0CE01D4
:102040004B96FC01E20FF31F40818889282F30E076
:10205000CE014F96FC01E20FF31F9081842F692F70
:1020600041E00E94FE0688898F5F888B88898430D2
:1020700008F4BECE8F85882321F4ECA9FDA98FEF4B
:1020800080838A89EA960FB6F894DEBF0FBECDBF73
:10209000CF91DF910895DF93CF93CDB7DEB7EF9760
:1020A0000FB6F894DEBF0FBECDBF84E1FE013296BD
:1020B000DF01982F1D929A95E9F780E391E3A0E361
:1020C000B0E08E8B9F8BA88FB98F80E1FE017A964E
:1020D000DF01982F1D929A95E9F780E391E3A0E341
:1020E000B0E08AA79BA7ACA7BDA780E1FE01BE9682
:1020F000DF01982F1D929A95E9F783E08EAF198240
:102100000E94680E0E9417098CE00E94FA0A81E082
:1021100060E041E00E94120681E00E94FA0A80E637
:1021200090E00E94100B82E061E00E94E20BCE0181
:10213000CF960E94C40E8FAD8F3FC9F38FAD803311
:10214000C8F08FAD8A33B0F40E9459128AE20E941F
:10215000E40A8981282F332727FD30958FAD482F3A
:10216000CE010296FC01E20FF31F408389818F5F4D
:102170008983DDCF8FAD8D33D1F6CE0102969E01DE
:102180002A5E3F4FB9010E942312813051F0CE01E7
:1021900002969E01265D3F4FB9010E9423128130B5
:1021A00039F4CE0146960E94FC1083E08EAF04C045
:1021B000CE01CE960E94671119820EC08981282F08
:1021C000332727FD3095CE010296FC01E20FF31F65
:1021D000108289818F5F8983898184317CF31982A0
:1021E00081E00E94FA0A80E690E00E94100B82E0F3
:1021F00061E00E94E20B9BCFDF93CF9300D000D031
:10220000CDB7DEB79C838B83198281E00E94FA0AE6
:1022100081E065E00E94E20B80E790E00E94100BF5
:10222000CE0102960E94C40E8A818F3FC9F38A8133
:10223000833609F445C08A818F3291F719820CC028
:102240008981282F30E08B819C81FC01E20FF31FF4
:10225000108289818F5F89838981843188F3198213
:1022600081E00E94FA0A81E061E00E94E20B8AE7C5
:1022700090E00E94100B82E061E00E94E20BCE0130
:1022800002960E94C40E8A818F3FC9F38A818033EF
:10229000A0F08A818A3388F48AE20E94E40A898164
:1022A000282F30E08B819C81FC01E20FF31F8A8193
:1022B000808389818F5F8983E2CF8A818D33F9F6AC
:1022C0000F900F900F900F90CF91DF910895DF93B3
:1022D000CF93CDB7DEB760970FB6F894DEBF0FBED1
:1022E000CDBF988B8F87EF85F8898081882309F48B
:1022F00098C0EF85F88980818150EF85F8898083C7
:1023000081E00E94FA0A81E065E00E94E20B8BE81E
:1023100090E00E94100B82E061E00E94E20BEF85EA
:10232000F8898081882F90E0A0E0B0E0BC01CD0169
:102330000E943E0B83E990E00E94100B80E090E049
:10234000AAEFB3E48B879C87AD87BE876B857C85BE
:102350008D859E8520E030E04AE755E40E94170213
:10236000DC01CB018F839887A987BA876F81788535
:1023700089859A8520E030E040E85FE30E947103A0
:1023800088232CF481E090E09E838D833FC06F8191
:10239000788589859A8520E03FEF4FE757E40E94D2
:1023A000110318164CF56B857C858D859E8520E084
:1023B00030E040E251E40E941702DC01CB01BC0195
:1023C000CD010E944100DC01CB019E838D830FC0B3
:1023D00080E991E09C838B838B819C810197F1F74D
:1023E0009C838B838D819E8101979E838D838D81BC
:1023F0009E81009769F71EC06F81788589859A85CF
:102400000E944100DC01CB019E838D838D819E81E2
:102410009A83898389819A810197F1F79A838983C5
:1024200009C081E00E94FA0A81EA90E00E94100B44
:102430000E94E81260960FB6F894DEBF0FBECDBFC3
:10244000CF91DF910895DF93CF9300D000D00F920A
:10245000CDB7DEB79A8389837C836B8315C0E9810E
:10246000FA819081EB81FC818081981759F48981F0
:102470009A8101969A8389838B819C8101969C83A2
:102480008B8302C01D820CC0E981FA818081882380
:1024900031F7EB81FC818081882309F781E08D830E
:1024A0008D810F900F900F900F900F90CF91DF9133
:1024B0000895DF93CF93CDB7DEB72E970FB6F8947C
:1024C000DEBF0FBECDBF81E060E041E00E94FE06AE
:1024D00080E090E0A8ECB2E48B879C87AD87BE8754
:1024E0006B857C858D859E8520E030E04AE755E44C
:1024F0000E941702DC01CB018F839887A987BA87D6
:102500006F81788589859A8520E030E040E85FE337
:102510000E94710388232CF481E090E09E838D83D8
:102520003FC06F81788589859A8520E03FEF4FE72E
:1025300057E40E94110318164CF56B857C858D8538
:102540009E8520E030E040E251E40E941702DC0169
:10255000CB01BC01CD010E944100DC01CB019E8377
:102560008D830FC080E991E09C838B838B819C815C
:102570000197F1F79C838B838D819E8101979E83C8
:102580008D838D819E81009769F714C06F81788556
:1025900089859A850E944100DC01CB019E838D8351
:1025A0008D819E819A83898389819A810197F1F730
:1025B0009A83898381E060E040E00E94FE062E96C7
:1025C0000FB6F894DEBF0FBECDBFCF91DF91089557
:1025D000DF93CF93CDB7DEB72E970FB6F894DEBF5B
:1025E0000FBECDBF81E060E00E94ED0780E090E08B
:1025F000AAEFB3E48B879C87AD87BE876B857C850C
:102600008D859E8520E030E04AE755E40E94170260
:10261000DC01CB018F839887A987BA876F81788582
:1026200089859A8520E030E040E85FE30E947103ED
:1026300088232CF481E090E09E838D833FC06F81DE
:10264000788589859A8520E03FEF4FE757E40E941F
:10265000110318164CF56B857C858D859E8520E0D1
:1026600030E040E251E40E941702DC01CB01BC01E2
:10267000CD010E944100DC01CB019E838D830FC000
:1026800080E991E09C838B838B819C810197F1F79A
:102690009C838B838D819E8101979E838D838D8109
:1026A0009E81009769F79ECF6F81788589859A858D
:1026B0000E944100DC01CB019E838D838D819E8130
:1026C0009A83898389819A810197F1F79A83898313
:1026D00089CF97FB092E05260ED057FD04D014D0C4
:1026E0000AD0001C38F450954095309521953F4F05
:1026F0004F4F5F4F0895F6F79095809570956195CF
:102700007F4F8F4F9F4F0895A1E21A2EAA1BBB1B2C
:10271000FD010DC0AA1FBB1FEE1FFF1FA217B307AD
:10272000E407F50720F0A21BB30BE40BF50B661FC3
:10273000771F881F991F1A9469F760957095809587
:1027400090959B01AC01BD01CF0108952F923F925E
:102750004F925F926F927F928F929F92AF92BF92B1
:10276000CF92DF92EF92FF920F931F93CF93DF935D
:10277000CDB7DEB7CA1BDB0B0FB6F894DEBF0FBEBA
:10278000CDBF09942A88398848885F846E847D8407
:102790008C849B84AA84B984C884DF80EE80FD8009
:1027A0000C811B81AA81B981CE0FD11D0FB6F8947F
:0E27B000DEBF0FBECDBFED010895F894FFCF40
:1027BE00456E7465722050617373776F72643A0060
:1027CE0057656C636F6D652121004E6577205061F2
:1027DE007373776F72642069733A0057726F6E6706
:1027EE0021210020747269616C206C656674212150
:1027FE000043616C6C696E6720506F6C6963652E67
:10280E002E2E0000000000000000003738392F3453
:0C281E0035362A3132332D63303D2B005B
:00000001FF
